{
  "address": "0x6eC735C80030fA79ee6BCE8896d0467582AcE2Da",
  "abi": [
    {
      "inputs": [
        {
          "internalType": "address",
          "name": "vrfCoordinatorV2",
          "type": "address"
        },
        {
          "internalType": "uint256",
          "name": "entranceFee",
          "type": "uint256"
        },
        {
          "internalType": "bytes32",
          "name": "gasLane",
          "type": "bytes32"
        },
        {
          "internalType": "uint64",
          "name": "subscriptionId",
          "type": "uint64"
        },
        {
          "internalType": "uint32",
          "name": "callbackGasLimit",
          "type": "uint32"
        },
        {
          "internalType": "uint256",
          "name": "_interval",
          "type": "uint256"
        }
      ],
      "stateMutability": "nonpayable",
      "type": "constructor"
    },
    {
      "inputs": [
        {
          "internalType": "address",
          "name": "have",
          "type": "address"
        },
        {
          "internalType": "address",
          "name": "want",
          "type": "address"
        }
      ],
      "name": "OnlyCoordinatorCanFulfill",
      "type": "error"
    },
    {
      "inputs": [],
      "name": "Raffle__AlreadyEntered",
      "type": "error"
    },
    {
      "inputs": [],
      "name": "Raffle__NotEnoughETHEntered",
      "type": "error"
    },
    {
      "inputs": [],
      "name": "Raffle__NotOpen",
      "type": "error"
    },
    {
      "inputs": [],
      "name": "Raffle__TransferFailed",
      "type": "error"
    },
    {
      "inputs": [
        {
          "internalType": "uint256",
          "name": "currentBalance",
          "type": "uint256"
        },
        {
          "internalType": "uint256",
          "name": "numPlayers",
          "type": "uint256"
        },
        {
          "internalType": "uint256",
          "name": "raffleState",
          "type": "uint256"
        }
      ],
      "name": "Raffle__UpKeepNotNeeded",
      "type": "error"
    },
    {
      "anonymous": false,
      "inputs": [
        {
          "indexed": true,
          "internalType": "address",
          "name": "player",
          "type": "address"
        }
      ],
      "name": "RaffleEnter",
      "type": "event"
    },
    {
      "anonymous": false,
      "inputs": [
        {
          "indexed": true,
          "internalType": "uint256",
          "name": "requestId",
          "type": "uint256"
        }
      ],
      "name": "RequestedRaffleWinner",
      "type": "event"
    },
    {
      "anonymous": false,
      "inputs": [
        {
          "indexed": true,
          "internalType": "address",
          "name": "winner",
          "type": "address"
        }
      ],
      "name": "WinnerPicked",
      "type": "event"
    },
    {
      "inputs": [
        {
          "internalType": "bytes",
          "name": "",
          "type": "bytes"
        }
      ],
      "name": "checkUpkeep",
      "outputs": [
        {
          "internalType": "bool",
          "name": "upkeepNeeded",
          "type": "bool"
        },
        {
          "internalType": "bytes",
          "name": "",
          "type": "bytes"
        }
      ],
      "stateMutability": "view",
      "type": "function"
    },
    {
      "inputs": [],
      "name": "enterRaffle",
      "outputs": [],
      "stateMutability": "payable",
      "type": "function"
    },
    {
      "inputs": [],
      "name": "getEntranceFee",
      "outputs": [
        {
          "internalType": "uint256",
          "name": "",
          "type": "uint256"
        }
      ],
      "stateMutability": "view",
      "type": "function"
    },
    {
      "inputs": [],
      "name": "getInterval",
      "outputs": [
        {
          "internalType": "uint256",
          "name": "",
          "type": "uint256"
        }
      ],
      "stateMutability": "view",
      "type": "function"
    },
    {
      "inputs": [],
      "name": "getLatestTimeStamp",
      "outputs": [
        {
          "internalType": "uint256",
          "name": "",
          "type": "uint256"
        }
      ],
      "stateMutability": "view",
      "type": "function"
    },
    {
      "inputs": [],
      "name": "getNumWords",
      "outputs": [
        {
          "internalType": "uint256",
          "name": "",
          "type": "uint256"
        }
      ],
      "stateMutability": "pure",
      "type": "function"
    },
    {
      "inputs": [],
      "name": "getNumberOfPlayers",
      "outputs": [
        {
          "internalType": "uint256",
          "name": "",
          "type": "uint256"
        }
      ],
      "stateMutability": "view",
      "type": "function"
    },
    {
      "inputs": [
        {
          "internalType": "uint256",
          "name": "index",
          "type": "uint256"
        }
      ],
      "name": "getPlayer",
      "outputs": [
        {
          "internalType": "address",
          "name": "",
          "type": "address"
        }
      ],
      "stateMutability": "view",
      "type": "function"
    },
    {
      "inputs": [],
      "name": "getRaffleOwner",
      "outputs": [
        {
          "internalType": "address",
          "name": "",
          "type": "address"
        }
      ],
      "stateMutability": "view",
      "type": "function"
    },
    {
      "inputs": [],
      "name": "getRaffleState",
      "outputs": [
        {
          "internalType": "enum Raffle.RaffleState",
          "name": "",
          "type": "uint8"
        }
      ],
      "stateMutability": "view",
      "type": "function"
    },
    {
      "inputs": [],
      "name": "getRecentWinner",
      "outputs": [
        {
          "internalType": "address",
          "name": "",
          "type": "address"
        }
      ],
      "stateMutability": "view",
      "type": "function"
    },
    {
      "inputs": [],
      "name": "getRequestConfirmations",
      "outputs": [
        {
          "internalType": "uint256",
          "name": "",
          "type": "uint256"
        }
      ],
      "stateMutability": "pure",
      "type": "function"
    },
    {
      "inputs": [],
      "name": "moneyInContract",
      "outputs": [
        {
          "internalType": "uint256",
          "name": "",
          "type": "uint256"
        }
      ],
      "stateMutability": "view",
      "type": "function"
    },
    {
      "inputs": [
        {
          "internalType": "bytes",
          "name": "",
          "type": "bytes"
        }
      ],
      "name": "performUpkeep",
      "outputs": [],
      "stateMutability": "nonpayable",
      "type": "function"
    },
    {
      "inputs": [
        {
          "internalType": "uint256",
          "name": "requestId",
          "type": "uint256"
        },
        {
          "internalType": "uint256[]",
          "name": "randomWords",
          "type": "uint256[]"
        }
      ],
      "name": "rawFulfillRandomWords",
      "outputs": [],
      "stateMutability": "nonpayable",
      "type": "function"
    },
    {
      "inputs": [
        {
          "internalType": "uint256",
          "name": "_interval",
          "type": "uint256"
        }
      ],
      "name": "updateInterval",
      "outputs": [],
      "stateMutability": "nonpayable",
      "type": "function"
    }
  ],
  "transactionHash": "0x46216403282b45d455006c8bf9535a3c4dd91d76295123edb778e344e75a2c7e",
  "args": [
    "0x8103B0A8A00be2DDC778e6e7eaa21791Cd364625",
    "10000000000000000",
    "0x474e34a077df58807dbe9c96d3c009b23b3c6d0cce433e59bbf5b34f823bc56c",
    "1253",
    "500000",
    "135"
  ],
  "numDeployments": 4,
  "solcInputHash": "c807db7a9ac0a8f90e74aa47de2c96a9",
  "bytecode": "0x6101406040523480156200001257600080fd5b5060405162001b6938038062001b698339818101604052810190620000389190620002de565b858073ffffffffffffffffffffffffffffffffffffffff1660808173ffffffffffffffffffffffffffffffffffffffff1660601b81525050508461012081815250508573ffffffffffffffffffffffffffffffffffffffff1660a08173ffffffffffffffffffffffffffffffffffffffff1660601b815250508360c081815250508267ffffffffffffffff1660e08167ffffffffffffffff1660c01b815250508163ffffffff166101008163ffffffff1660e01b815250506000600260146101000a81548160ff021916908360018111156200011957620001186200037a565b5b02179055504260038190555080600481905550336000806101000a81548173ffffffffffffffffffffffffffffffffffffffff021916908373ffffffffffffffffffffffffffffffffffffffff160217905550505050505050620003a9565b600080fd5b600073ffffffffffffffffffffffffffffffffffffffff82169050919050565b6000620001aa826200017d565b9050919050565b620001bc816200019d565b8114620001c857600080fd5b50565b600081519050620001dc81620001b1565b92915050565b6000819050919050565b620001f781620001e2565b81146200020357600080fd5b50565b6000815190506200021781620001ec565b92915050565b6000819050919050565b62000232816200021d565b81146200023e57600080fd5b50565b600081519050620002528162000227565b92915050565b600067ffffffffffffffff82169050919050565b620002778162000258565b81146200028357600080fd5b50565b60008151905062000297816200026c565b92915050565b600063ffffffff82169050919050565b620002b8816200029d565b8114620002c457600080fd5b50565b600081519050620002d881620002ad565b92915050565b60008060008060008060c08789031215620002fe57620002fd62000178565b5b60006200030e89828a01620001cb565b96505060206200032189828a0162000206565b95505060406200033489828a0162000241565b94505060606200034789828a0162000286565b93505060806200035a89828a01620002c7565b92505060a06200036d89828a0162000206565b9150509295509295509295565b7f4e487b7100000000000000000000000000000000000000000000000000000000600052602160045260246000fd5b60805160601c60a05160601c60c05160e05160c01c6101005160e01c6101205161175662000413600039600081816103aa015261060d0152600061084f0152600061082c0152600061080b015260006107cf015260008181610418015261046c01526117566000f3fe6080604052600436106100f35760003560e01c8063473f1ddc1161008a57806391ad27b41161005957806391ad27b4146102ea578063d0f0792614610315578063e55ae4e81461033e578063fd6673f51461037b576100f3565b8063473f1ddc1461022b57806353a2c19a146102565780635f1b0fd8146102815780636e04ff0d146102ac576100f3565b80631fe543e3116100c65780631fe543e3146101a45780632cfcc539146101cd578063320229eb146101d75780634585e33b14610202576100f3565b806309bc33a7146100f8578063115cbaf514610123578063173e42411461014e57806319a6ac8414610179575b600080fd5b34801561010457600080fd5b5061010d6103a6565b60405161011a9190610deb565b60405180910390f35b34801561012f57600080fd5b506101386103ce565b6040516101459190610e7d565b60405180910390f35b34801561015a57600080fd5b506101636103e5565b6040516101709190610deb565b60405180910390f35b34801561018557600080fd5b5061018e6103ed565b60405161019b9190610ed9565b60405180910390f35b3480156101b057600080fd5b506101cb60048036038101906101c6919061108d565b610416565b005b6101d56104d6565b005b3480156101e357600080fd5b506101ec61070d565b6040516101f99190610deb565b60405180910390f35b34801561020e57600080fd5b5061022960048036038101906102249190611144565b610717565b005b34801561023757600080fd5b50610240610917565b60405161024d9190610ed9565b60405180910390f35b34801561026257600080fd5b5061026b610941565b6040516102789190610deb565b60405180910390f35b34801561028d57600080fd5b50610296610950565b6040516102a39190610deb565b60405180910390f35b3480156102b857600080fd5b506102d360048036038101906102ce9190611246565b61095d565b6040516102e1929190611332565b60405180910390f35b3480156102f657600080fd5b506102ff610a01565b60405161030c9190610deb565b60405180910390f35b34801561032157600080fd5b5061033c60048036038101906103379190611362565b610a0b565b005b34801561034a57600080fd5b5061036560048036038101906103609190611362565b610aa3565b6040516103729190610ed9565b60405180910390f35b34801561038757600080fd5b50610390610aeb565b60405161039d9190610deb565b60405180910390f35b60007f0000000000000000000000000000000000000000000000000000000000000000905090565b6000600260149054906101000a900460ff16905090565b600047905090565b60008060009054906101000a900473ffffffffffffffffffffffffffffffffffffffff16905090565b7f000000000000000000000000000000000000000000000000000000000000000073ffffffffffffffffffffffffffffffffffffffff163373ffffffffffffffffffffffffffffffffffffffff16146104c857337f00000000000000000000000000000000000000000000000000000000000000006040517f1cf993f40000000000000000000000000000000000000000000000000000000081526004016104bf92919061138f565b60405180910390fd5b6104d28282610af8565b5050565b600060018111156104ea576104e9610e06565b5b600260149054906101000a900460ff16600181111561050c5761050b610e06565b5b14610543576040517f1425571c00000000000000000000000000000000000000000000000000000000815260040160405180910390fd5b60005b60018054905081101561060a573373ffffffffffffffffffffffffffffffffffffffff166001828154811061057e5761057d6113b8565b5b9060005260206000200160009054906101000a900473ffffffffffffffffffffffffffffffffffffffff1673ffffffffffffffffffffffffffffffffffffffff1614156105f7576040517f1eeeae8500000000000000000000000000000000000000000000000000000000815260040160405180910390fd5b808061060290611416565b915050610546565b507f0000000000000000000000000000000000000000000000000000000000000000341015610665576040517fbd4e069500000000000000000000000000000000000000000000000000000000815260040160405180910390fd5b6001339080600181540180825580915050600190039060005260206000200160009091909190916101000a81548173ffffffffffffffffffffffffffffffffffffffff021916908373ffffffffffffffffffffffffffffffffffffffff1602179055503373ffffffffffffffffffffffffffffffffffffffff167f0805e1d667bddb8a95f0f09880cf94f403fb596ce79928d9f29b74203ba284d460405160405180910390a2565b6000600354905090565b60006107316040518060200160405280600081525061095d565b509050806107a05747600180549050600260149054906101000a900460ff16600181111561076257610761610e06565b5b6040517f3a8d60860000000000000000000000000000000000000000000000000000000081526004016107979392919061145f565b60405180910390fd5b6001600260146101000a81548160ff021916908360018111156107c6576107c5610e06565b5b021790555060007f000000000000000000000000000000000000000000000000000000000000000073ffffffffffffffffffffffffffffffffffffffff16635d3b1d307f00000000000000000000000000000000000000000000000000000000000000007f000000000000000000000000000000000000000000000000000000000000000060037f000000000000000000000000000000000000000000000000000000000000000060016040518663ffffffff1660e01b815260040161089095949392919061150e565b602060405180830381600087803b1580156108aa57600080fd5b505af11580156108be573d6000803e3d6000fd5b505050506040513d601f19601f820116820180604052508101906108e29190611576565b9050807fcd6e45c8998311cab7e9d4385596cac867e20a0587194b954fa3a731c93ce78b60405160405180910390a250505050565b6000600260009054906101000a900473ffffffffffffffffffffffffffffffffffffffff16905090565b6000600163ffffffff16905090565b6000600361ffff16905090565b600060606000600260149054906101000a900460ff16600181111561098557610984610e06565b5b6000600181111561099957610998610e06565b5b1490506000600454600354426109af91906115a3565b119050600080600180549050119050600080471190508380156109cf5750825b80156109d85750815b80156109e15750805b955085604051806020016040528060008152509550955050505050915091565b6000600454905090565b60008054906101000a900473ffffffffffffffffffffffffffffffffffffffff1673ffffffffffffffffffffffffffffffffffffffff163373ffffffffffffffffffffffffffffffffffffffff1614610a99576040517f08c379a0000000000000000000000000000000000000000000000000000000008152600401610a909061165a565b60405180910390fd5b8060048190555050565b600060018281548110610ab957610ab86113b8565b5b9060005260206000200160009054906101000a900473ffffffffffffffffffffffffffffffffffffffff169050919050565b6000600180549050905090565b600060018054905082600081518110610b1457610b136113b8565b5b6020026020010151610b2691906116a9565b9050600060018281548110610b3e57610b3d6113b8565b5b9060005260206000200160009054906101000a900473ffffffffffffffffffffffffffffffffffffffff16905080600260006101000a81548173ffffffffffffffffffffffffffffffffffffffff021916908373ffffffffffffffffffffffffffffffffffffffff1602179055506000600260146101000a81548160ff02191690836001811115610bd257610bd1610e06565b5b0217905550600067ffffffffffffffff811115610bf257610bf1610f4a565b5b604051908082528060200260200182016040528015610c205781602001602082028036833780820191505090505b5060019080519060200190610c36929190610d2b565b504260038190555060008173ffffffffffffffffffffffffffffffffffffffff1647604051610c649061170b565b60006040518083038185875af1925050503d8060008114610ca1576040519150601f19603f3d011682016040523d82523d6000602084013e610ca6565b606091505b5050905080610ce1576040517fa1d04b3900000000000000000000000000000000000000000000000000000000815260040160405180910390fd5b8173ffffffffffffffffffffffffffffffffffffffff167f5b690ec4a06fe979403046eaeea5b3ce38524683c3001f662c8b5a829632f7df60405160405180910390a25050505050565b828054828255906000526020600020908101928215610da4579160200282015b82811115610da35782518260006101000a81548173ffffffffffffffffffffffffffffffffffffffff021916908373ffffffffffffffffffffffffffffffffffffffff16021790555091602001919060010190610d4b565b5b509050610db19190610db5565b5090565b5b80821115610dce576000816000905550600101610db6565b5090565b6000819050919050565b610de581610dd2565b82525050565b6000602082019050610e006000830184610ddc565b92915050565b7f4e487b7100000000000000000000000000000000000000000000000000000000600052602160045260246000fd5b60028110610e4657610e45610e06565b5b50565b6000819050610e5782610e35565b919050565b6000610e6782610e49565b9050919050565b610e7781610e5c565b82525050565b6000602082019050610e926000830184610e6e565b92915050565b600073ffffffffffffffffffffffffffffffffffffffff82169050919050565b6000610ec382610e98565b9050919050565b610ed381610eb8565b82525050565b6000602082019050610eee6000830184610eca565b92915050565b6000604051905090565b600080fd5b600080fd5b610f1181610dd2565b8114610f1c57600080fd5b50565b600081359050610f2e81610f08565b92915050565b600080fd5b6000601f19601f8301169050919050565b7f4e487b7100000000000000000000000000000000000000000000000000000000600052604160045260246000fd5b610f8282610f39565b810181811067ffffffffffffffff82111715610fa157610fa0610f4a565b5b80604052505050565b6000610fb4610ef4565b9050610fc08282610f79565b919050565b600067ffffffffffffffff821115610fe057610fdf610f4a565b5b602082029050602081019050919050565b600080fd5b600061100961100484610fc5565b610faa565b9050808382526020820190506020840283018581111561102c5761102b610ff1565b5b835b8181101561105557806110418882610f1f565b84526020840193505060208101905061102e565b5050509392505050565b600082601f83011261107457611073610f34565b5b8135611084848260208601610ff6565b91505092915050565b600080604083850312156110a4576110a3610efe565b5b60006110b285828601610f1f565b925050602083013567ffffffffffffffff8111156110d3576110d2610f03565b5b6110df8582860161105f565b9150509250929050565b600080fd5b60008083601f84011261110457611103610f34565b5b8235905067ffffffffffffffff811115611121576111206110e9565b5b60208301915083600182028301111561113d5761113c610ff1565b5b9250929050565b6000806020838503121561115b5761115a610efe565b5b600083013567ffffffffffffffff81111561117957611178610f03565b5b611185858286016110ee565b92509250509250929050565b600080fd5b600067ffffffffffffffff8211156111b1576111b0610f4a565b5b6111ba82610f39565b9050602081019050919050565b82818337600083830152505050565b60006111e96111e484611196565b610faa565b90508281526020810184848401111561120557611204611191565b5b6112108482856111c7565b509392505050565b600082601f83011261122d5761122c610f34565b5b813561123d8482602086016111d6565b91505092915050565b60006020828403121561125c5761125b610efe565b5b600082013567ffffffffffffffff81111561127a57611279610f03565b5b61128684828501611218565b91505092915050565b60008115159050919050565b6112a48161128f565b82525050565b600081519050919050565b600082825260208201905092915050565b60005b838110156112e45780820151818401526020810190506112c9565b838111156112f3576000848401525b50505050565b6000611304826112aa565b61130e81856112b5565b935061131e8185602086016112c6565b61132781610f39565b840191505092915050565b6000604082019050611347600083018561129b565b818103602083015261135981846112f9565b90509392505050565b60006020828403121561137857611377610efe565b5b600061138684828501610f1f565b91505092915050565b60006040820190506113a46000830185610eca565b6113b16020830184610eca565b9392505050565b7f4e487b7100000000000000000000000000000000000000000000000000000000600052603260045260246000fd5b7f4e487b7100000000000000000000000000000000000000000000000000000000600052601160045260246000fd5b600061142182610dd2565b91507fffffffffffffffffffffffffffffffffffffffffffffffffffffffffffffffff821415611454576114536113e7565b5b600182019050919050565b60006060820190506114746000830186610ddc565b6114816020830185610ddc565b61148e6040830184610ddc565b949350505050565b6000819050919050565b6114a981611496565b82525050565b600067ffffffffffffffff82169050919050565b6114cc816114af565b82525050565b600061ffff82169050919050565b6114e9816114d2565b82525050565b600063ffffffff82169050919050565b611508816114ef565b82525050565b600060a08201905061152360008301886114a0565b61153060208301876114c3565b61153d60408301866114e0565b61154a60608301856114ff565b61155760808301846114ff565b9695505050505050565b60008151905061157081610f08565b92915050565b60006020828403121561158c5761158b610efe565b5b600061159a84828501611561565b91505092915050565b60006115ae82610dd2565b91506115b983610dd2565b9250828210156115cc576115cb6113e7565b5b828203905092915050565b600082825260208201905092915050565b7f4f6e6c7920726166666c654f776e65722063616e206368616e6765207468652060008201527f696e74657276616c000000000000000000000000000000000000000000000000602082015250565b60006116446028836115d7565b915061164f826115e8565b604082019050919050565b6000602082019050818103600083015261167381611637565b9050919050565b7f4e487b7100000000000000000000000000000000000000000000000000000000600052601260045260246000fd5b60006116b482610dd2565b91506116bf83610dd2565b9250826116cf576116ce61167a565b5b828206905092915050565b600081905092915050565b50565b60006116f56000836116da565b9150611700826116e5565b600082019050919050565b6000611716826116e8565b915081905091905056fea2646970667358221220025e1022f1eba0e0a4aa045e0be5e3a63de5ac6762c0b138ece50c9f27653fe864736f6c63430008080033",
  "devdoc": {
    "author": "Mert Kaya",
    "details": "This implements Chainlink VRF v2 and Chainlink Keepers",
    "kind": "dev",
    "methods": {
      "checkUpkeep(bytes)": {
        "details": "This is the function that the Chainlink Keeper nodes call they look for the `upkeepNeeded` to return true. The following should be true in order to return true. 1. Our time interval should have passed 2. The lottery should have at least 1 player, and have some ETH 3. Our subscription is funded with LINK 4. The lottery should be in an \"open\" state. Smg that we want to avoid when we are waiting for a random number to return and when we have requested a random winner, we are technically in this weird limbo state where we are waiting for a random number to be returned, and we really shouldn't allow any new players to join. So we need to create a state variable telling us whether the lottery is open or not, and while we are waiting for a random number to get back, we will be in a closed or a calculated state."
      }
    },
    "title": "A sample Raffle Contract",
    "version": 1
  },
  "userdoc": {
    "kind": "user",
    "methods": {},
    "notice": "This contract is for creating an untamperable de-cent smart contract",
    "version": 1
  },
  "storageLayout": {
    "storage": [
      {
        "astId": 277,
        "contract": "contracts/Raffle.sol:Raffle",
        "label": "raffleOwner",
        "offset": 0,
        "slot": "0",
        "type": "t_address"
      },
      {
        "astId": 282,
        "contract": "contracts/Raffle.sol:Raffle",
        "label": "s_players",
        "offset": 0,
        "slot": "1",
        "type": "t_array(t_address_payable)dyn_storage"
      },
      {
        "astId": 284,
        "contract": "contracts/Raffle.sol:Raffle",
        "label": "s_recentWinner",
        "offset": 0,
        "slot": "2",
        "type": "t_address"
      },
      {
        "astId": 287,
        "contract": "contracts/Raffle.sol:Raffle",
        "label": "s_raffleState",
        "offset": 20,
        "slot": "2",
        "type": "t_enum(RaffleState)260"
      },
      {
        "astId": 289,
        "contract": "contracts/Raffle.sol:Raffle",
        "label": "s_lastTimeStamp",
        "offset": 0,
        "slot": "3",
        "type": "t_uint256"
      },
      {
        "astId": 291,
        "contract": "contracts/Raffle.sol:Raffle",
        "label": "interval",
        "offset": 0,
        "slot": "4",
        "type": "t_uint256"
      }
    ],
    "types": {
      "t_address": {
        "encoding": "inplace",
        "label": "address",
        "numberOfBytes": "20"
      },
      "t_address_payable": {
        "encoding": "inplace",
        "label": "address payable",
        "numberOfBytes": "20"
      },
      "t_array(t_address_payable)dyn_storage": {
        "base": "t_address_payable",
        "encoding": "dynamic_array",
        "label": "address payable[]",
        "numberOfBytes": "32"
      },
      "t_enum(RaffleState)260": {
        "encoding": "inplace",
        "label": "enum Raffle.RaffleState",
        "numberOfBytes": "1"
      },
      "t_uint256": {
        "encoding": "inplace",
        "label": "uint256",
        "numberOfBytes": "32"
      }
    }
  }
}