{
  "address": "0xa6C59d823CC12a4f9EaA6B500EBc2FE90A74C228",
  "abi": [
    {
      "inputs": [
        {
          "internalType": "address",
          "name": "vrfCoordinatorV2",
          "type": "address"
        },
        {
          "internalType": "uint256",
          "name": "entranceFee",
          "type": "uint256"
        },
        {
          "internalType": "bytes32",
          "name": "gasLane",
          "type": "bytes32"
        },
        {
          "internalType": "uint64",
          "name": "subscriptionId",
          "type": "uint64"
        },
        {
          "internalType": "uint32",
          "name": "callbackGasLimit",
          "type": "uint32"
        },
        {
          "internalType": "uint256",
          "name": "interval",
          "type": "uint256"
        }
      ],
      "stateMutability": "nonpayable",
      "type": "constructor"
    },
    {
      "inputs": [
        {
          "internalType": "address",
          "name": "have",
          "type": "address"
        },
        {
          "internalType": "address",
          "name": "want",
          "type": "address"
        }
      ],
      "name": "OnlyCoordinatorCanFulfill",
      "type": "error"
    },
    {
      "inputs": [],
      "name": "Raffle__NotEnoughETHEntered",
      "type": "error"
    },
    {
      "inputs": [],
      "name": "Raffle__NotOpen",
      "type": "error"
    },
    {
      "inputs": [],
      "name": "Raffle__TransferFailed",
      "type": "error"
    },
    {
      "inputs": [
        {
          "internalType": "uint256",
          "name": "currentBalance",
          "type": "uint256"
        },
        {
          "internalType": "uint256",
          "name": "numPlayers",
          "type": "uint256"
        },
        {
          "internalType": "uint256",
          "name": "raffleState",
          "type": "uint256"
        }
      ],
      "name": "Raffle__UpKeepNotNeeded",
      "type": "error"
    },
    {
      "anonymous": false,
      "inputs": [
        {
          "indexed": true,
          "internalType": "address",
          "name": "player",
          "type": "address"
        }
      ],
      "name": "RaffleEnter",
      "type": "event"
    },
    {
      "anonymous": false,
      "inputs": [
        {
          "indexed": true,
          "internalType": "uint256",
          "name": "requestId",
          "type": "uint256"
        }
      ],
      "name": "RequestedRaffleWinner",
      "type": "event"
    },
    {
      "anonymous": false,
      "inputs": [
        {
          "indexed": true,
          "internalType": "address",
          "name": "winner",
          "type": "address"
        }
      ],
      "name": "WinnerPicked",
      "type": "event"
    },
    {
      "inputs": [
        {
          "internalType": "bytes",
          "name": "",
          "type": "bytes"
        }
      ],
      "name": "checkUpkeep",
      "outputs": [
        {
          "internalType": "bool",
          "name": "upkeepNeeded",
          "type": "bool"
        },
        {
          "internalType": "bytes",
          "name": "",
          "type": "bytes"
        }
      ],
      "stateMutability": "view",
      "type": "function"
    },
    {
      "inputs": [],
      "name": "enterRaffle",
      "outputs": [],
      "stateMutability": "payable",
      "type": "function"
    },
    {
      "inputs": [],
      "name": "getEntranceFee",
      "outputs": [
        {
          "internalType": "uint256",
          "name": "",
          "type": "uint256"
        }
      ],
      "stateMutability": "view",
      "type": "function"
    },
    {
      "inputs": [],
      "name": "getInterval",
      "outputs": [
        {
          "internalType": "uint256",
          "name": "",
          "type": "uint256"
        }
      ],
      "stateMutability": "view",
      "type": "function"
    },
    {
      "inputs": [],
      "name": "getLatestTimeStamp",
      "outputs": [
        {
          "internalType": "uint256",
          "name": "",
          "type": "uint256"
        }
      ],
      "stateMutability": "view",
      "type": "function"
    },
    {
      "inputs": [],
      "name": "getNumWords",
      "outputs": [
        {
          "internalType": "uint256",
          "name": "",
          "type": "uint256"
        }
      ],
      "stateMutability": "pure",
      "type": "function"
    },
    {
      "inputs": [],
      "name": "getNumberOfPlayers",
      "outputs": [
        {
          "internalType": "uint256",
          "name": "",
          "type": "uint256"
        }
      ],
      "stateMutability": "view",
      "type": "function"
    },
    {
      "inputs": [
        {
          "internalType": "uint256",
          "name": "index",
          "type": "uint256"
        }
      ],
      "name": "getPlayer",
      "outputs": [
        {
          "internalType": "address",
          "name": "",
          "type": "address"
        }
      ],
      "stateMutability": "view",
      "type": "function"
    },
    {
      "inputs": [],
      "name": "getRaffleState",
      "outputs": [
        {
          "internalType": "enum Raffle.RaffleState",
          "name": "",
          "type": "uint8"
        }
      ],
      "stateMutability": "view",
      "type": "function"
    },
    {
      "inputs": [],
      "name": "getRecentWinner",
      "outputs": [
        {
          "internalType": "address",
          "name": "",
          "type": "address"
        }
      ],
      "stateMutability": "view",
      "type": "function"
    },
    {
      "inputs": [],
      "name": "getRequestConfirmations",
      "outputs": [
        {
          "internalType": "uint256",
          "name": "",
          "type": "uint256"
        }
      ],
      "stateMutability": "pure",
      "type": "function"
    },
    {
      "inputs": [],
      "name": "moneyInContract",
      "outputs": [
        {
          "internalType": "uint256",
          "name": "",
          "type": "uint256"
        }
      ],
      "stateMutability": "view",
      "type": "function"
    },
    {
      "inputs": [
        {
          "internalType": "bytes",
          "name": "",
          "type": "bytes"
        }
      ],
      "name": "performUpkeep",
      "outputs": [],
      "stateMutability": "nonpayable",
      "type": "function"
    },
    {
      "inputs": [
        {
          "internalType": "uint256",
          "name": "requestId",
          "type": "uint256"
        },
        {
          "internalType": "uint256[]",
          "name": "randomWords",
          "type": "uint256[]"
        }
      ],
      "name": "rawFulfillRandomWords",
      "outputs": [],
      "stateMutability": "nonpayable",
      "type": "function"
    }
  ],
  "transactionHash": "0x8fc789f5c9856037970a51b408a1475dbeba92fbcfde7f4514f7588d95fc7eb3",
  "args": [
    "0x2Ca8E0C643bDe4C2E08ab1fA0da3401AdAD7734D",
    "10000000000000000",
    "0x79d3d8832d904592c0bf9818b621522c988bb8b0c05cdc3b15aea1b6e8db0c15",
    "1268",
    "500000",
    "30"
  ],
  "numDeployments": 3,
  "solcInputHash": "54ad3468da362d442c8f816103aeee0a",
  "bytecode": "0x6101606040523480156200001257600080fd5b5060405162001895380380620018958339818101604052810190620000389190620002a0565b858073ffffffffffffffffffffffffffffffffffffffff1660808173ffffffffffffffffffffffffffffffffffffffff1660601b81525050508461012081815250508573ffffffffffffffffffffffffffffffffffffffff1660a08173ffffffffffffffffffffffffffffffffffffffff1660601b815250508360c081815250508267ffffffffffffffff1660e08167ffffffffffffffff1660c01b815250508163ffffffff166101008163ffffffff1660e01b815250506000600160146101000a81548160ff021916908360018111156200011957620001186200033c565b5b0217905550426002819055508061014081815250505050505050506200036b565b600080fd5b600073ffffffffffffffffffffffffffffffffffffffff82169050919050565b60006200016c826200013f565b9050919050565b6200017e816200015f565b81146200018a57600080fd5b50565b6000815190506200019e8162000173565b92915050565b6000819050919050565b620001b981620001a4565b8114620001c557600080fd5b50565b600081519050620001d981620001ae565b92915050565b6000819050919050565b620001f481620001df565b81146200020057600080fd5b50565b6000815190506200021481620001e9565b92915050565b600067ffffffffffffffff82169050919050565b62000239816200021a565b81146200024557600080fd5b50565b60008151905062000259816200022e565b92915050565b600063ffffffff82169050919050565b6200027a816200025f565b81146200028657600080fd5b50565b6000815190506200029a816200026f565b92915050565b60008060008060008060c08789031215620002c057620002bf6200013a565b5b6000620002d089828a016200018d565b9650506020620002e389828a01620001c8565b9550506040620002f689828a0162000203565b94505060606200030989828a0162000248565b93505060806200031c89828a0162000289565b92505060a06200032f89828a01620001c8565b9150509295509295509295565b7f4e487b7100000000000000000000000000000000000000000000000000000000600052602160045260246000fd5b60805160601c60a05160601c60c05160e05160c01c6101005160e01c61012051610140516114ae620003e76000396000818161084401526108c70152600081816103400152610445015260006106f3015260006106d0015260006106af0152600061067301526000818161038501526103d901526114ae6000f3fe6080604052600436106100dd5760003560e01c8063473f1ddc1161007f5780636e04ff0d116100595780636e04ff0d1461026b57806391ad27b4146102a9578063e55ae4e8146102d4578063fd6673f514610311576100dd565b8063473f1ddc146101ea57806353a2c19a146102155780635f1b0fd814610240576100dd565b80631fe543e3116100bb5780631fe543e3146101635780632cfcc5391461018c578063320229eb146101965780634585e33b146101c1576100dd565b806309bc33a7146100e2578063115cbaf51461010d578063173e424114610138575b600080fd5b3480156100ee57600080fd5b506100f761033c565b6040516101049190610c2f565b60405180910390f35b34801561011957600080fd5b50610122610364565b60405161012f9190610cc1565b60405180910390f35b34801561014457600080fd5b5061014d61037b565b60405161015a9190610c2f565b60405180910390f35b34801561016f57600080fd5b5061018a60048036038101906101859190610e75565b610383565b005b610194610443565b005b3480156101a257600080fd5b506101ab6105b2565b6040516101b89190610c2f565b60405180910390f35b3480156101cd57600080fd5b506101e860048036038101906101e39190610f2c565b6105bc565b005b3480156101f657600080fd5b506101ff6107bb565b60405161020c9190610fba565b60405180910390f35b34801561022157600080fd5b5061022a6107e5565b6040516102379190610c2f565b60405180910390f35b34801561024c57600080fd5b506102556107f4565b6040516102629190610c2f565b60405180910390f35b34801561027757600080fd5b50610292600480360381019061028d919061108a565b610801565b6040516102a0929190611176565b60405180910390f35b3480156102b557600080fd5b506102be6108c3565b6040516102cb9190610c2f565b60405180910390f35b3480156102e057600080fd5b506102fb60048036038101906102f691906111a6565b6108eb565b6040516103089190610fba565b60405180910390f35b34801561031d57600080fd5b50610326610932565b6040516103339190610c2f565b60405180910390f35b60007f0000000000000000000000000000000000000000000000000000000000000000905090565b6000600160149054906101000a900460ff16905090565b600047905090565b7f000000000000000000000000000000000000000000000000000000000000000073ffffffffffffffffffffffffffffffffffffffff163373ffffffffffffffffffffffffffffffffffffffff161461043557337f00000000000000000000000000000000000000000000000000000000000000006040517f1cf993f400000000000000000000000000000000000000000000000000000000815260040161042c9291906111d3565b60405180910390fd5b61043f828261093e565b5050565b7f000000000000000000000000000000000000000000000000000000000000000034101561049d576040517fbd4e069500000000000000000000000000000000000000000000000000000000815260040160405180910390fd5b600060018111156104b1576104b0610c4a565b5b600160149054906101000a900460ff1660018111156104d3576104d2610c4a565b5b1461050a576040517f1425571c00000000000000000000000000000000000000000000000000000000815260040160405180910390fd5b6000339080600181540180825580915050600190039060005260206000200160009091909190916101000a81548173ffffffffffffffffffffffffffffffffffffffff021916908373ffffffffffffffffffffffffffffffffffffffff1602179055503373ffffffffffffffffffffffffffffffffffffffff167f0805e1d667bddb8a95f0f09880cf94f403fb596ce79928d9f29b74203ba284d460405160405180910390a2565b6000600254905090565b60006105d660405180602001604052806000815250610801565b509050806106455747600080549050600160149054906101000a900460ff16600181111561060757610606610c4a565b5b6040517f3a8d608600000000000000000000000000000000000000000000000000000000815260040161063c939291906111fc565b60405180910390fd5b60018060146101000a81548160ff0219169083600181111561066a57610669610c4a565b5b021790555060007f000000000000000000000000000000000000000000000000000000000000000073ffffffffffffffffffffffffffffffffffffffff16635d3b1d307f00000000000000000000000000000000000000000000000000000000000000007f000000000000000000000000000000000000000000000000000000000000000060037f000000000000000000000000000000000000000000000000000000000000000060016040518663ffffffff1660e01b81526004016107349594939291906112ab565b602060405180830381600087803b15801561074e57600080fd5b505af1158015610762573d6000803e3d6000fd5b505050506040513d601f19601f820116820180604052508101906107869190611313565b9050807fcd6e45c8998311cab7e9d4385596cac867e20a0587194b954fa3a731c93ce78b60405160405180910390a250505050565b6000600160009054906101000a900473ffffffffffffffffffffffffffffffffffffffff16905090565b6000600163ffffffff16905090565b6000600361ffff16905090565b600060606000600160149054906101000a900460ff16600181111561082957610828610c4a565b5b6000600181111561083d5761083c610c4a565b5b14905060007f000000000000000000000000000000000000000000000000000000000000000060025442610871919061136f565b119050600080600080549050119050600080471190508380156108915750825b801561089a5750815b80156108a35750805b955085604051806020016040528060008152509550955050505050915091565b60007f0000000000000000000000000000000000000000000000000000000000000000905090565b6000808281548110610900576108ff6113a3565b5b9060005260206000200160009054906101000a900473ffffffffffffffffffffffffffffffffffffffff169050919050565b60008080549050905090565b6000808054905082600081518110610959576109586113a3565b5b602002602001015161096b9190611401565b90506000808281548110610982576109816113a3565b5b9060005260206000200160009054906101000a900473ffffffffffffffffffffffffffffffffffffffff16905080600160006101000a81548173ffffffffffffffffffffffffffffffffffffffff021916908373ffffffffffffffffffffffffffffffffffffffff1602179055506000600160146101000a81548160ff02191690836001811115610a1657610a15610c4a565b5b0217905550600067ffffffffffffffff811115610a3657610a35610d32565b5b604051908082528060200260200182016040528015610a645781602001602082028036833780820191505090505b5060009080519060200190610a7a929190610b6f565b504260028190555060008173ffffffffffffffffffffffffffffffffffffffff1647604051610aa890611463565b60006040518083038185875af1925050503d8060008114610ae5576040519150601f19603f3d011682016040523d82523d6000602084013e610aea565b606091505b5050905080610b25576040517fa1d04b3900000000000000000000000000000000000000000000000000000000815260040160405180910390fd5b8173ffffffffffffffffffffffffffffffffffffffff167f5b690ec4a06fe979403046eaeea5b3ce38524683c3001f662c8b5a829632f7df60405160405180910390a25050505050565b828054828255906000526020600020908101928215610be8579160200282015b82811115610be75782518260006101000a81548173ffffffffffffffffffffffffffffffffffffffff021916908373ffffffffffffffffffffffffffffffffffffffff16021790555091602001919060010190610b8f565b5b509050610bf59190610bf9565b5090565b5b80821115610c12576000816000905550600101610bfa565b5090565b6000819050919050565b610c2981610c16565b82525050565b6000602082019050610c446000830184610c20565b92915050565b7f4e487b7100000000000000000000000000000000000000000000000000000000600052602160045260246000fd5b60028110610c8a57610c89610c4a565b5b50565b6000819050610c9b82610c79565b919050565b6000610cab82610c8d565b9050919050565b610cbb81610ca0565b82525050565b6000602082019050610cd66000830184610cb2565b92915050565b6000604051905090565b600080fd5b600080fd5b610cf981610c16565b8114610d0457600080fd5b50565b600081359050610d1681610cf0565b92915050565b600080fd5b6000601f19601f8301169050919050565b7f4e487b7100000000000000000000000000000000000000000000000000000000600052604160045260246000fd5b610d6a82610d21565b810181811067ffffffffffffffff82111715610d8957610d88610d32565b5b80604052505050565b6000610d9c610cdc565b9050610da88282610d61565b919050565b600067ffffffffffffffff821115610dc857610dc7610d32565b5b602082029050602081019050919050565b600080fd5b6000610df1610dec84610dad565b610d92565b90508083825260208201905060208402830185811115610e1457610e13610dd9565b5b835b81811015610e3d5780610e298882610d07565b845260208401935050602081019050610e16565b5050509392505050565b600082601f830112610e5c57610e5b610d1c565b5b8135610e6c848260208601610dde565b91505092915050565b60008060408385031215610e8c57610e8b610ce6565b5b6000610e9a85828601610d07565b925050602083013567ffffffffffffffff811115610ebb57610eba610ceb565b5b610ec785828601610e47565b9150509250929050565b600080fd5b60008083601f840112610eec57610eeb610d1c565b5b8235905067ffffffffffffffff811115610f0957610f08610ed1565b5b602083019150836001820283011115610f2557610f24610dd9565b5b9250929050565b60008060208385031215610f4357610f42610ce6565b5b600083013567ffffffffffffffff811115610f6157610f60610ceb565b5b610f6d85828601610ed6565b92509250509250929050565b600073ffffffffffffffffffffffffffffffffffffffff82169050919050565b6000610fa482610f79565b9050919050565b610fb481610f99565b82525050565b6000602082019050610fcf6000830184610fab565b92915050565b600080fd5b600067ffffffffffffffff821115610ff557610ff4610d32565b5b610ffe82610d21565b9050602081019050919050565b82818337600083830152505050565b600061102d61102884610fda565b610d92565b90508281526020810184848401111561104957611048610fd5565b5b61105484828561100b565b509392505050565b600082601f83011261107157611070610d1c565b5b813561108184826020860161101a565b91505092915050565b6000602082840312156110a05761109f610ce6565b5b600082013567ffffffffffffffff8111156110be576110bd610ceb565b5b6110ca8482850161105c565b91505092915050565b60008115159050919050565b6110e8816110d3565b82525050565b600081519050919050565b600082825260208201905092915050565b60005b8381101561112857808201518184015260208101905061110d565b83811115611137576000848401525b50505050565b6000611148826110ee565b61115281856110f9565b935061116281856020860161110a565b61116b81610d21565b840191505092915050565b600060408201905061118b60008301856110df565b818103602083015261119d818461113d565b90509392505050565b6000602082840312156111bc576111bb610ce6565b5b60006111ca84828501610d07565b91505092915050565b60006040820190506111e86000830185610fab565b6111f56020830184610fab565b9392505050565b60006060820190506112116000830186610c20565b61121e6020830185610c20565b61122b6040830184610c20565b949350505050565b6000819050919050565b61124681611233565b82525050565b600067ffffffffffffffff82169050919050565b6112698161124c565b82525050565b600061ffff82169050919050565b6112868161126f565b82525050565b600063ffffffff82169050919050565b6112a58161128c565b82525050565b600060a0820190506112c0600083018861123d565b6112cd6020830187611260565b6112da604083018661127d565b6112e7606083018561129c565b6112f4608083018461129c565b9695505050505050565b60008151905061130d81610cf0565b92915050565b60006020828403121561132957611328610ce6565b5b6000611337848285016112fe565b91505092915050565b7f4e487b7100000000000000000000000000000000000000000000000000000000600052601160045260246000fd5b600061137a82610c16565b915061138583610c16565b92508282101561139857611397611340565b5b828203905092915050565b7f4e487b7100000000000000000000000000000000000000000000000000000000600052603260045260246000fd5b7f4e487b7100000000000000000000000000000000000000000000000000000000600052601260045260246000fd5b600061140c82610c16565b915061141783610c16565b925082611427576114266113d2565b5b828206905092915050565b600081905092915050565b50565b600061144d600083611432565b91506114588261143d565b600082019050919050565b600061146e82611440565b915081905091905056fea2646970667358221220b2f87b05202f5852cabf7176579f154ed23cd8426652cd06ba1f80e36ea704a464736f6c63430008080033",
  "devdoc": {
    "author": "Mert Kaya",
    "details": "This implements Chainlink VRF v2 and Chainlink Keepers",
    "kind": "dev",
    "methods": {
      "checkUpkeep(bytes)": {
        "details": "This is the function that the Chainlink Keeper nodes call they look for the `upkeepNeeded` to return true. The following should be true in order to return true. 1. Our time interval should have passed 2. The lottery should have at least 1 player, and have some ETH 3. Our subscription is funded with LINK 4. The lottery should be in an \"open\" state. Smg that we want to avoid when we are waiting for a random number to return and when we have requested a random winner, we are technically in this weird limbo state where we are waiting for a random number to be returned, and we really shouldn't allow any new players to join. So we need to create a state variable telling us whether the lottery is open or not, and while we are waiting for a random number to get back, we will be in a closed or a calculated state."
      }
    },
    "title": "A sample Raffle Contract",
    "version": 1
  },
  "userdoc": {
    "kind": "user",
    "methods": {},
    "notice": "This contract is for creating an untamperable de-cent smart contract",
    "version": 1
  },
  "storageLayout": {
    "storage": [
      {
        "astId": 1181,
        "contract": "contracts/Raffle.sol:Raffle",
        "label": "s_players",
        "offset": 0,
        "slot": "0",
        "type": "t_array(t_address_payable)dyn_storage"
      },
      {
        "astId": 1183,
        "contract": "contracts/Raffle.sol:Raffle",
        "label": "s_recentWinner",
        "offset": 0,
        "slot": "1",
        "type": "t_address"
      },
      {
        "astId": 1186,
        "contract": "contracts/Raffle.sol:Raffle",
        "label": "s_raffleState",
        "offset": 20,
        "slot": "1",
        "type": "t_enum(RaffleState)1161"
      },
      {
        "astId": 1188,
        "contract": "contracts/Raffle.sol:Raffle",
        "label": "s_lastTimeStamp",
        "offset": 0,
        "slot": "2",
        "type": "t_uint256"
      }
    ],
    "types": {
      "t_address": {
        "encoding": "inplace",
        "label": "address",
        "numberOfBytes": "20"
      },
      "t_address_payable": {
        "encoding": "inplace",
        "label": "address payable",
        "numberOfBytes": "20"
      },
      "t_array(t_address_payable)dyn_storage": {
        "base": "t_address_payable",
        "encoding": "dynamic_array",
        "label": "address payable[]",
        "numberOfBytes": "32"
      },
      "t_enum(RaffleState)1161": {
        "encoding": "inplace",
        "label": "enum Raffle.RaffleState",
        "numberOfBytes": "1"
      },
      "t_uint256": {
        "encoding": "inplace",
        "label": "uint256",
        "numberOfBytes": "32"
      }
    }
  }
}